:020000040800F2
:10000000A8580020E1020008FF1500089515000817
:10001000FD1500081B0600088D22000800000000E6
:10002000000000000000000000000000290200089D
:100030001D060008000000007D020008CB1E00081D
:10004000FB020008FB020008FB020008FB0200089C
:10005000FB020008FB020008FB020008FB0200088C
:10006000FB020008FB020008FB020008FB0200087C
:10007000FB020008FB020008FB020008FB0200086C
:10008000FB020008FB020008FB020008FB0200085C
:10009000FB020008FB020008FB020008FB0200084C
:1000A000FB020008FB020008FB020008FB0200083C
:1000B000FB020008FB020008751F0008FB02000895
:1000C000FB020008FB020008FB020008FB0200081C
:1000D000FB020008FB020008FB020008FB0200080C
:1000E000FB020008FB020008FB020008FB020008FC
:1000F000FB020008FB020008FB020008FB020008EC
:10010000FB020008FB020008FB020008FB020008DB
:10011000FB020008FB020008FB020008FB020008CB
:10012000FB020008FB020008FB020008FB020008BB
:10013000FB020008FB020008FB020008FB020008AB
:10014000FB020008FB020008FB020008FB0200089B
:10015000FB020008FB020008FB02000881220008E5
:10016000FB020008FB020008FB020008FB0200087B
:10017000FB020008FB020008FB0200080000000070
:10018000FB020008FB02000800F002F800F03CF857
:100190000AA090E8000C82448344AAF10107DA45E2
:1001A00001D100F031F8AFF2090EBAE80F0013F0F8
:1001B000010F18BFFB1A43F001031847E82C000099
:1001C000082D0000103A24BF78C878C1FAD8520729
:1001D00024BF30C830C144BF04680C6070470000C1
:1001E0000023002400250026103A28BF78C1FBD840
:1001F000520728BF30C148BF0B6070471FB502F0DF
:10020000F5FD1FBD10B510BD00F0CEF91146FFF78A
:10021000F5FF02F007FA00F0ECF903B4FFF7F2FF84
:1002200003BC00F0F3F900002A4B19680868B0E835
:10023000F04F80F30988BFF36F8F4FF0000080F319
:10024000118870470000000006480068006880F3CD
:10025000088862B661B6BFF34F8FBFF36F8F00DFC0
:1002600000BF00BF08ED00E0DFF80C00016841F4BA
:1002700070010160704700BF88ED00E0EFF3098076
:10028000BFF36F8F134B1A681EF0100F08BF20EDDD
:10029000108A20E9F04F106008B44FF0BF0080F3DF
:1002A0001188BFF34F8FBFF36F8F02F04FFC4FF0F9
:1002B000000080F3118808BC19680868B0E8F04FA6
:1002C0001EF0100F08BFB0EC108A80F30988BFF34E
:1002D0006F8F704718000020EFF305807047000013
:1002E0000948804709480047FEE7FEE7FEE7FEE7CA
:1002F000FEE7FEE7FEE7FEE7FEE7FEE70448054906
:10030000054A064B70470000651F00088901000878
:10031000A8520020A8580020A8540020A85400206B
:1003200053EA020C00F069802DE9F04B4FF0000613
:10033000002B1FBFB3FA83F503FA05F424FA05F680
:100340005E4012BF1643B2FA82F502FA05F4C5F117
:1003500020051EBF22FA05FC44EA0C04203556EAAB
:10036000044C4FEA144418BF641C4FF000084FF0CF
:100370000009904271EB030C39D3002919BFB1FA7F
:1003800081F701FA07F6B0FA80F700FA07F6C7F12D
:1003900020071EBF20FA07FC46EA0C062037B6FBF2
:1003A000F4FCA7EB0507103F07F01F0BCBF120066D
:1003B0000CFA0BFB2CFA06F644BFB3460026202F9E
:1003C000A4BF5E464FF0000B5BEA060C08BF4FF07F
:1003D000010B19EB0B09ABFB027C48EB0608C01BB9
:1003E00006FB02CC0BFB03CC71EB0C01C1E70B4607
:1003F000024641464846BDE8F08B13B54FF0000079
:100400004FF00001AFF30080BDE81C40704740EAA8
:10041000010310B59B070FD1042A0DD310C808C9DA
:10042000121F9C42F8D020BA19BA884201D9012083
:1004300010BD4FF0FF3010BD1AB1D30703D0521CCE
:1004400007E0002010BD10F8013B11F8014B1B1B09
:1004500007D110F8013B11F8014B1B1B01D1921E73
:10046000F1D1184610BD032A40F2308010F0030C81
:1004700000F0158011F8013BBCF1020F624498BFF7
:1004800011F801CB00F8013B38BF11F8013BA2F194
:10049000040298BF00F801CB38BF00F8013B11F00F
:1004A000030300F04F80083AC0F0088051F8043B85
:1004B000083A51F804CBA0E80810F5E7121D5CBF1C
:1004C00051F8043B40F8043BAFF30080D20724BF4F
:1004D00011F8013B11F801CB48BF11F8012B24BFE3
:1004E00000F8013B00F801CB48BF00F8012B704732
:1004F0004FF0000200B5134694469646203922BFBD
:10050000A0E80C50A0E80C50B1F12001BFF4F7AF07
:10051000090728BFA0E80C5048BF0CC05DF804EBE9
:10052000890028BF40F8042B08BF704748BF20F857
:10053000022B11F0804F18BF00F8012B7047704755
:100540007047704710B5203AC0F00B80B1E81850E2
:10055000203AA0E81850B1E81850A0E81850BFF4AD
:10056000F5AF5FEA027C24BFB1E81850A0E818504C
:1005700044BF18C918C0BDE810405FEA827C24BFA0
:1005800051F8043B40F8043B08BF7047D20728BF2E
:1005900031F8023B48BF11F8012B28BF20F8023B7D
:1005A00048BF00F8012B7047754600F02BF8AE46A7
:1005B00005006946534620F00700854618B020B56F
:1005C000FFF79CFEBDE820404FF000064FF000070B
:1005D0004FF000084FF0000B21F00701AC46ACE8EB
:1005E000C009ACE8C009ACE8C009ACE8C0098D4658
:1005F000704710B50446AFF300802046BDE81040B8
:10060000FFF70BBE004870474452002001491820F4
:10061000ABBEFEE7260002007047FEE7704772B6E9
:10062000FEE72DE9F0410446876D00F04DF90646DE
:1006300094F835000025022806D08020606584F8F3
:1006400034500120BDE8F0812068016821F01601D6
:1006500001602068416921F080014161206C08B986
:10066000A06C20B12068016821F0080101602068B9
:10067000016821F0010101600CE000F025F9801B08
:10068000052807D920206065032084F8350084F808
:100690003450D7E720680068C007EED194F85C10AA
:1006A0003F208840B860012084F8350084F8345039
:1006B0000020C7E790F83510022903D0802141655A
:1006C00001207047052180F835100068016821F08D
:1006D00001010160002070472DE9F84FDFF8BCA14F
:1006E0000022012503264FF00F090AF1040BAAF19D
:1006F000040E00BF0B6805FA02F42340A34270D138
:100700000F7907F00307012F01D0022F16D1876858
:100710004FEA420806FA08FC27EA0C07D1F80CC099
:100720000CFA08FC4CEA070CC0F808C04768A7435D
:100730000C79C4F3001494403C4344600C79E443C6
:10074000A4070AD0C4684FEA420C06FA0CF7BC436F
:100750008F6807FA0CF72743C7600C7904F003048D
:10076000022C12D1D40800EB840CDCF8204057078F
:10077000FF0E09FA07F824EA0804D1F8108008FAF5
:1007800007F848EA0408CCF8208004684FEA420CD5
:1007900006FA0CF7BC430F7907F0030707FA0CF7CA
:1007A000274307604C6814F4403F70D03C4C2768E6
:1007B00047F480472760246822F0030704F480444C
:1007C0000094384C07EB040CDCF8084897074FEA14
:1007D000177809FA08F7BC43334FB84202D1002713
:1007E00024E054E0314FB84201D101271EE0304FE0
:1007F000B84201D1022719E02E4FB84201D1032798
:1008000014E02D4FB84201D104270FE02B4FB8421E
:1008100001D105270AE02A4FB84201D1062705E099
:10082000284FB84201D1072700E0082707FA08F748
:100830002743CCF80878DAF800405746D1F804C0CE
:100840009C435FEACC2C00D51C433C60DBF80040A5
:100850005F46D1F804C09C435FEA8C2C00D51C4352
:100860003C60DEF800407746D1F804C09C435FEA64
:100870008C3C00D51C433C60084F083F3C68D1F8D5
:1008800004C09C435FEACC3C00D51C433C60521C36
:10089000102AFFF42FAFBDE8F88F0000083C01409C
:1008A0004438024000300140000002400004024091
:1008B00000080240000C02400010024000140240F8
:1008C00000180240001C0240014880687047000088
:1008D0000800002002488168027811448160704756
:1008E000080000200B4810B5016841F40071016058
:1008F000016841F480610160016841F48071016028
:10090000032000F09BF80F2000F006F800F050F8EC
:10091000002010BD003C024030B505461F4887B09E
:100920000024016841F004010160006806A900F09C
:100930000400009001A800F02DF90498A8B100F07F
:1009400049F940001649174AB0FBF1F11648491E13
:10095000026040F2E732C0E90324C0E90114846177
:1009600000F042FB040003D015E000F033F9E9E7A2
:100970000D4800F067FB04000DD11E2000F030F898
:10098000102D07D2002229461E2000F037F8074814
:10099000056000E0012407B0204630BD4038024029
:1009A00040420F0000080040C80000200C0000205A
:1009B0000A4808B5016841F480410160006800F40C
:1009C000804000900548001F016841F0805101609F
:1009D000006800F08050009008BD000044380240DC
:1009E000002809DB00F01F0201219140400980002E
:1009F00000F1E020C0F8001170470000F0B40E4B89
:100A00001B680C46C3F30223C3F10705042D00D96C
:100A10000425191D072901D2002300E0DB1E012651
:100A200006FA05F1491E214099409E40761E164067
:100A30003143F0BC01F08EBD0CED00E0064900F042
:100A4000070208684FF6FF03184040EA0220034AF5
:100A500010430860704700000CED00E00000FA054C
:100A60002DE9F0470E46050065D0DFF81481D8F86F
:100A70000000F7B200F00700B04207D288F800701B
:100A8000D8F8000000F00700B04254D128683D4C6F
:100A9000810712D5400703D5206840F4E05020605C
:100AA0002878000703D5206840F460402060206863
:100AB000A96820F0F000084320602878C0072DD0F6
:100AC000304968680839012812D0022813D0032859
:100AD00011D00968890700292DDA216821F0030166
:100AE00001432160FFF7F0FE814641F2883A0EE0B3
:100AF00009688903EFE709688901ECE7FFF7E4FE7D
:100B0000A0EB0901514502D90320BDE8F087206818
:100B1000696800F00C00B0EB810FEFD1D8F800103D
:100B2000404601F00701B14207D90770006800F0A4
:100B30000700B04201D00120E7E72878400705D53B
:100B40002068E96820F4E050084320602878000716
:100B500006D52068296920F4604040EAC100206081
:100B600000F058F82168084AC1F30311515CC840ED
:100B70000649086006480068FFF7CEFE0020C4E77B
:100B8000003C024008380240F62D00081400002006
:100B90000C0000200F2202600C4A136803F00303CC
:100BA0004360136803F0F0038360136803F4E053B9
:100BB000C36012684FF4E05303EAD20202610448B2
:100BC000006800F007000860704700000838024025
:100BD000003C02400448054900680968044AC1F322
:100BE0008221515CC8407047140000200838024040
:100BF000062E00080448054900680968044AC1F344
:100C00004231515CC840704714000020083802404F
:100C1000062E0008154810B5006810F00C021448A4
:100C200013D01449042A0FD0082A0ED10F4C241FC8
:100C30002268236802F03F025B0207D52068C0F3F8
:100C40008810A0FB010106E0084610BD2168C1F331
:100C50008811A1FB00010023FFF762FB2168C1F3AB
:100C60000141491C4900B0FBF1F010BD08380240B9
:100C70000024F40040787D012DE9F84F04006ED087
:100C80002078DFF84C93C007A9F104054AD009F198
:100C900004000168C1F38101012908D00068C0F394
:100CA000810002280AD1D9F80000400206D5286840
:100CB000800337D560680028E1D033E06068B0F584
:100CC000803F10D0B0F5A02F286810D020F48030DD
:100CD0002860286820F4802028606068A8B1FFF7A9
:100CE000F3FD06460DE0286840F48030F4E740F458
:100CF00080202860F7E700BFFFF7E6FD801B64282F
:100D000073D828688003F7D50CE0FFF7DDFD0646B1
:100D100005E000BFFFF7D8FD801B6428F0D82868E5
:100D20008003F7D42078DFF8AC8280074FF0000A08
:100D30003ED5A748001D016811F00C0F08D00068CF
:100D4000C0F3810002280BD1D9F80000400207D47B
:100D50002868800716D5E068012800D112E033E149
:100D6000E068B8B10120C8F80000FFF7ADFD064605
:100D700005E000BFFFF7A8FD801B0228C0D8286847
:100D80008007F7D52868216920F0F80040EAC10003
:100D900028600DE0C8F800A0FFF796FD064604E0C5
:100DA000FFF792FD801B02281FD828688007F7D420
:100DB0002078000722D5864F87486169703771B166
:100DC00001210160FFF780FD064604E0FFF77CFD8E
:100DD000801B022809D838688007F7D50EE0C0F8D4
:100DE00000A0FFF771FD064605E082E0FFF76CFD0D
:100DF000801B02287DD838688007F7D42078400708
:100E000068D5DFF8CCB100270BF13C0BDBF8000014
:100E1000C0000BD4DBF8001041F08051CBF800107B
:100E2000DBF80000012700F0805000906B4E306826
:100E3000C00510D4306840F480703060FFF744FD86
:100E4000009005E0FFF740FD0099401A022850D8B5
:100E50003068C005F6D55E4EA0686C3601280FD00C
:100E60000528306810D020F001003060306820F094
:100E700004003060A068B8B1FFF726FD00900FE0D5
:100E8000306840F00100F4E740F004003060F7E71C
:100E9000FFF71AFD0099411A41F28830814266D865
:100EA00030688007F4D50EE0FFF70EFD009007E0F4
:100EB000FFF70AFD0099411A41F28830814256D865
:100EC00030688007F4D42FB1DBF8001021F0805196
:100ED000CBF80010A069C8B33D49091D0968C1F3EA
:100EE000810102294AD00228504607D0C8F8600084
:100EF00000E03CE0FFF7E8FC04463BE04746C8F86A
:100F00006000FFF7E1FC064605E000BFFFF7DCFCF0
:100F1000801B02282BD828688001F7D4D4E9070168
:100F20000843A16A2E4A490802EB0141626A41EA7C
:100F30008211084394F82C1040EA0161C9F80010AE
:100F400001203866FFF7C0FC044606E03EE000BF23
:100F5000FFF7BAFC001B022809D828688001F7D5E2
:100F600034E000BFFFF7B0FC001B022802D90320C9
:100F7000BDE8F88F28688001F4D427E00128F7D075
:100F8000D9F80000E26900F4800191421CD1226A84
:100F900000F03F01914217D147F6C071626A0140EB
:100FA000B1EB821F10D1A26A4FF0FF3300F4403141
:100FB00003EB5202B1EB024F06D194F82C1000F073
:100FC0007060B0EB016F01D00120D1E70020CFE7C6
:100FD0000438024000004742800E47420070004043
:100FE0000000FFFF7047704710B5040003D094F86D
:100FF0003D0010B107E0012010BD002084F83C0046
:10100000204600F01EF8022084F83D00211D2068D3
:1010100000F0BCFF012084F8460084F83E0084F80C
:101020003F0084F8400084F8410084F8420084F8CE
:10103000430084F8440084F8450084F83D00002013
:1010400010BD704790F83D10012901D00120704774
:10105000022180F83D100168CA6842F00102CA60AE
:1010600000681149884214D0B0F1804F11D00F4967
:1010700088420ED00E4988420BD00E49884208D0D3
:101080000D49884205D00D49884202D00C4988425A
:1010900004D1816801F00701062903D0016841F0FD
:1010A0000101016000207047000001400004004081
:1010B00000080040000C00400004014000400140D6
:1010C00000180040704770B50446006801694FF091
:1010D0000005C943890715D4C168C943890711D4DC
:1010E000E91E016101202077206880698007204681
:1010F00002D0FFF7E7FF04E000F098F8204600F088
:1011000096F8257720680169C943490717D4C16853
:10111000C943490713D46FF004010161022020770D
:101120002068806910F4407F204602D0FFF7CAFF94
:1011300004E000F07BF8204600F079F8257720687D
:101140000169C943090716D4C168C943090712D404
:101150006FF008010161042020772068C0698007D2
:10116000204602D0FFF7AEFF04E000F05FF8204613
:1011700000F05DF8257720680169C943C90617D4D6
:10118000C168C943C90613D46FF01001016108207A
:1011900020772068C06910F4407F204602D0FFF716
:1011A00091FF04E000F042F8204600F040F8257777
:1011B00020680169C943C90708D1C168C943C90783
:1011C00004D1891E0161204600F032F820680169CF
:1011D000C943090609D4C168C943090605D46FF09B
:1011E000800101612046FFF7FDFE20680169C943C7
:1011F000490609D4C168C943490605D46FF04001C6
:101200000161204600F01EF820680169C943890683
:101210000BD4C168C943890607D46FF0200101616E
:101220002046BDE87040FFF7DEBE70BD70477047D6
:1012300000680349884201D1FFF74CBB70470000AA
:10124000000800407047704770470000F8B501681B
:1012500004460868CA684B6910F00F0F4FF000058C
:1012600059D003F0010602F49077374365D0C107E7
:1012700005D0D10503D5216C41F00101216441075E
:1012800005D5D90703D0216C41F002012164810703
:1012900005D5D90703D0216C41F004012164010771
:1012A00007D502F02001314303D0216C41F0080141
:1012B0002164216C00293AD0800604D5900602D51D
:1012C000204600F0F6FE20684069216CC0F38010D3
:1012D000090700D460B3204600F0C4FE20684069CE
:1012E000400621D52068143050E8001F21F040014D
:1012F00040E80012002AF5D1A06BA8B16C49016545
:10130000A06BFFF7D7F9002811D0A06B016D01B0D9
:10131000BDE8F040084783060FD593060DD520465B
:10132000BDE8F84000F0C5BE2046FFF78DFFF8BDD0
:101330002046FFF789FF2564F8BD266B2023012E88
:1013400079D1C60677D5D60675D508684868009065
:101350004869400640D5A16B086840680004000C4D
:10136000EAD0A28D8242E7D9E085C869B0F5807FD6
:101370002DD020680C3050E8001F21F4807140E827
:101380000012002AF5D12068143050E8001F21F027
:10139000010140E80012002AF5D12068143050E81D
:1013A000001F21F0400140E80012002AF5D184F826
:1013B0003E30256320680C3050E8001F21F01001FA
:1013C00040E80012002AF5D1A06BFFF72AF9A08DA2
:1013D000E18D401A81B229E0A08DE18D401A81B2E1
:1013E000E08D0028A8D00029A6D020680C3050E855
:1013F000002F22F4907240E80026002EF5D12068DC
:10140000143050E8002F22F0010240E80026002EA0
:10141000F5D184F83E30256320680C3050E8002F69
:1014200022F0100240E80023002BF5D12046FFF700
:101430000AFFF8BDFFE705062BD5150629D594F858
:101440003D002128F5D1A068B0F5805F01D1206969
:10145000B0B1206A411C2162216800784860E08CAC
:10146000401E0004000CE084E3D12068C16821F034
:101470008001C1602068C16841F04001C160D8E7C7
:10148000206A0088C0F308004860206A801C20623F
:10149000E5E74006CDD55006CBD5CA68204622F0F8
:1014A0004002CA6084F83D3000F073F8C1E70000E4
:1014B0005520000870B5040004D094F83D000025C4
:1014C00010B106E0012070BD84F83C50204600F0C9
:1014D00023F8242084F83D002068C16821F40051DD
:1014E000C160204600F046FE2068016921F4904169
:1014F00001612068416921F02A0141612068C168C9
:1015000041F40051C1602564202084F83D0084F836
:101510003E00002070BD000010B586B004461421C6
:101520006846FEF7E5FF17492068884228D116482B
:101530000021026842F020020260006800F02000F2
:10154000059011481438026842F0040202600068F5
:1015500000F004000590C02000900220CDE90101B8
:10156000032003900820049069460848FFF7B4F868
:10157000002211464720FFF741FA4720FFF730FAD3
:1015800006B010BD0014014044380240000802407B
:1015900070477047FEE70000094808B5016841F050
:1015A00004010160016801F004010091016841F04B
:1015B00080010160006800F08000009008BD00001C
:1015C000303802400C4810B50A4901604FF4E1314F
:1015D0004160002181600C22C160C0E90412816178
:1015E000C161FFF767FF002803D0BDE81040FFF797
:1015F00016B810BD0014014084000020FEE7FEE78D
:101600002DE9F041074618481C46154600780E465D
:10161000532801D000F03CFEEFF31182202080F32C
:10162000118811495FF0000000EB400301EBC30398
:10163000DB691BB10B69401C8342F5DC0B698342FB
:101640000BDD00EB400301EBC3018F61CE610D6246
:1016500000238B624B62CC6201E04FF0FF30D1B2CD
:1016600081F31188BDE8F081E04700202DE9F041C9
:1016700004461548DDF818801D46007816460F46CA
:10168000532801D000F004FE0F48032C18D2EFF3CA
:101690001181202282F3118804EB440200EBC20086
:1016A00060302CB107604660856000220261C26034
:1016B000C0F81480C8B280F311880020BDE8F08122
:1016C0004FF0FF30FAE70000E04700202DE9F04737
:1016D00005461C4816460C460078532801D000F0F9
:1016E000D7FD184905EB450001EBC007A046D7E937
:1016F0001B95002460374D4511D9B868441BB4428E
:1017000000D334467868224641194046FEF7ABFEC6
:10171000B868361B2544A044A84200D10025A9EB97
:101720000500B04200D206463EB178683246411903
:101730004046FEF798FE3444354404B13D612046EE
:10174000BDE8F087E04700202DE9F0410F46194938
:1017500000EB400001EBC0041646A16A656AE0692F
:1017600018342844A94217D8A268521B531EB3420A
:1017700001D3324614E01944B14219D31546394613
:10178000FEF771FE2A46761B04D0B918324660680F
:10179000FEF769FEE66008E0491B491EB14207D327
:1017A0003946FEF760FEA819E0600120BDE8F0812F
:1017B0000020FBE7E0470020084810B5054B064A2B
:1017C000014600F04DF8BDE810404FF0805000F0A9
:1017D0009BBA0000952500084C2E0008007A030AE9
:1017E00070B5EFF31185202080F311881B48A0F11C
:1017F0002F040146626804E042F0800301F8013BD7
:10180000D2097F2AF8D801F8012BA26805E000BFB1
:1018100042F0800301F8013BD2097F2AF8D801F891
:10182000012B226905E000BF42F0800301F8013B73
:10183000D2097F2AF8D801F8012B002201F8012BE8
:10184000182200F0B5FDE8B280F31188606A002824
:1018500002D0BDE87040004770BD0000C7500020B6
:101860002DE9F8431E4617468846814600234FF46B
:1018700080620D490DA0FFF7C3FE0E4CC0B20025DB
:101880006070207608230C4A08A10095FFF7EEFE51
:101890000A4825614068C4F80490C4E90280C4E99C
:1018A00008762570BDE8F883984C0020537973566C
:1018B000696577009850002078000020001000E053
:1018C00010B5EFF31184202080F311880448112211
:1018D000014600F06DFDE0B280F3118810BD0000FC
:1018E000C750002010B50146EFF31184202080F38B
:1018F00011880B48A0F12F0212698A1A014604E0F0
:1019000042F0800301F8013BD2097F2AF8D801F8A0
:10191000012B082200F04CFDE0B280F3118810BDCD
:10192000C750002010B50146EFF31184202080F34A
:1019300011880B48A0F12F0212698A1A014604E0AF
:1019400042F0800301F8013BD2097F2AF8D801F860
:10195000012B042200F02CFDE0B280F3118810BDB1
:10196000C750002010B50146EFF31184202080F30A
:1019700011880B48A0F12F0212698A1A014604E06F
:1019800042F0800301F8013BD2097F2AF8D801F820
:10199000012B062200F00CFDE0B280F3118810BD8F
:1019A000C750002010B5EFF31184202080F3118878
:1019B0000C490B480988C1F30802014605E000BF45
:1019C00042F0800301F8013BD2097F2AF8D801F8E0
:1019D000012B022200F0ECFCE0B280F3118810BD74
:1019E000C750002004ED00E010B5EFF31184202073
:1019F00080F3118804480322014600F0D9FCE0B2CC
:101A000080F3118810BD0000C750002010B5EFF31F
:101A10001184202080F3118804481222014600F02E
:101A2000C7FCE0B280F3118810BD0000C750002051
:101A30000A4810B5006A48B1006838B180470A46C4
:101A40000146BDE810400D2000F02AB80448416866
:101A5000BDE810400C2000F005B8000098500020B0
:101A6000001000E070B50246EFF31184202080F3EF
:101A700011880A48034604E041F0800500F8015B44
:101A8000C9097F29F8D800F8011B0146184600F063
:101A90008FFCE0B280F3118870BD0000C7500020B9
:101AA00070B50546EFF31184202080F311880F48AC
:101AB000034604E041F0800600F8016BC9097F2964
:101AC000F8D800F8011B04E042F0800100F8011B87
:101AD000D2097F2AF8D800F8012B01462A46184679
:101AE00000F066FCE0B280F3118870BDC7500020A2
:101AF00010B50246EFF31184202080F311880448CA
:101B0000014600F055FCE0B280F3118810BD0000E2
:101B1000C750002070B501461E484468002C38D0DC
:101B2000002003E02469002C33D0401C8842F9D304
:101B3000EFF31186202080F31188174D284604E02A
:101B400041F0800200F8012BC9097F29F8D800F87C
:101B5000011BA16805E000BF41F0800200F8012BE5
:101B6000C9097F29F8D800F8011B8022216800F0FC
:101B7000C1FB01461622284600F01AFCF0B280F3A1
:101B80001188002C05D0E068002802D0BDE8704024
:101B9000004770BD70000020C7500020054810B5F8
:101BA0004468002C04D0E06800B180472469F8E75D
:101BB00010BD00007000002010B5EFF3118420204C
:101BC00080F311880B4A0A480146127805E000BFED
:101BD00042F0800301F8013BD2097F2AF8D801F8CE
:101BE000012B1B2200F0E4FBE0B280F3118810BD52
:101BF000C75000207000002070B5EFF31185202140
:101C000081F31188074C01468022204600F072FBC8
:101C100001460E22204600F0CBFBE8B280F311888B
:101C200070BD0000C75000202DE9F0410546EFF3DC
:101C30001186202080F311882C4C2968A4F12F07ED
:101C400020463A69891A04E041F0800200F8012B2D
:101C5000C9097F29F8D800F8011BA96805E000BF71
:101C600041F0800200F8012BC9097F29F8D800F85B
:101C7000011B2022696800F03DFB01460922204635
:101C800000F096FB28683A692146801A05E000BFFB
:101C900040F0800201F8012BC0097F28F8D801F834
:101CA000010BE86805E000BF40F0800201F8012B5D
:101CB000C0097F28F8D801F8010B286905E000BFAA
:101CC00040F0800201F8012BC0097F28F8D801F804
:101CD000010B002001F8010B1522204600F068FBE3
:101CE000F0B280F31188BDE8F0810000C7500020F9
:101CF0000448006A002803D04068002800D000474C
:101D000070470000985000200149086170470000AA
:101D10009850002070B5294C01202070EFF31185F8
:101D2000202686F3118860780A222549FFF70CFDEA
:101D3000E8B280F311880A20FFF7DAFEEFF311858D
:101D400086F3118804F12F000146626805E000BFA8
:101D500042F0800301F8013BD2097F2AF8D801F84C
:101D6000012BA26805E000BF42F0800301F8013BAF
:101D7000D2097F2AF8D801F8012B226905E000BFBB
:101D800042F0800301F8013BD2097F2AF8D801F81C
:101D9000012B002201F8012B182200F009FBE8B208
:101DA00080F31188606A00B18047FFF741FEFFF7BA
:101DB0009FFFBDE87040FFF7FFBE00009850002075
:101DC0002F2E000870B5EFF31184202080F31188C6
:101DD0000748A0F12F05297829B10B22014600F010
:101DE000E7FA00202870E0B280F3118870BD00008F
:101DF000C750002070B5EFF31185202181F31188C1
:101E00000A4C01468022204600F074FA012100F8B5
:101E1000011B002100F8011B01461A22204600F098
:101E2000C7FAE8B280F3118870BD0000C7500020E7
:101E30002DE9F8430C46174680461E46052213A19D
:101E40002046089DFEF7E3FA00281CD0114A1068CE
:101E5000082804D3BDE8F8430F48FFF7CBBF00EBD9
:101E600080010E4B401C43F8218003EB8101334677
:101E7000C1E90147C1E9036510603A462146404681
:101E8000009500F00DF8BDE8F883000049444C458A
:101E90000000000080000020542E0008A451002003
:101EA0002DE9F04186B00D4604461F461646142122
:101EB0006846DDF83080FEF71BFB8DE8F0016846D0
:101EC000FFF7B2FE06B0BDE8F08100F089BE000069
:101ED00030B593B030216846FEF70AFB14210CA8F8
:101EE000FEF706FB1D480025016841F080510160A6
:101EF000006800F0805011901948016841F4804159
:101F000001600068022400F48040119001200390D9
:101F10001020009406940490CDE907504FF4A87067
:101F2000CDE9090404200B906846FEF7A5FE08B130
:101F300072B6FEE70CA90F2081E831004FF4A050E3
:101F40000F904FF48050109005210CA8FEF788FDEB
:101F5000002801D072B6FEE713B030BD4038024011
:101F6000007000400248016841F470010160704750
:101F700088ED00E010B5FFF715FD0348FFF7A3F863
:101F8000BDE81040FFF730BDC8000020F0B5026882
:101F9000254C264D264E274F274B4FF0804CA04214
:101FA00009D0604507D0A84205D0B04203D0B8425E
:101FB00001D0984204D122F0700E4A6842EA0E0223
:101FC000A0421BD0604519D0A84217D0B04215D00E
:101FD000B84213D0984211D0184DA8420ED0184DD7
:101FE000A8420BD0174DA84208D0174DA84205D0E3
:101FF000164DA84202D0164DA84203D122F44075D6
:10200000CA682A434D6922F080022A4302608A6826
:10201000C2620A688262A04201D0984201D1096975
:10202000016301214161F0BD000001400004004056
:1020300000080040000C0040000401400040014046
:10204000004401400048014000180040001C0040CE
:102050000020004010B5806B0021C185C184FFF7CE
:10206000F3F810BD01680C3151E8002F22F4907292
:1020700041E80023002BF5D10168143151E8002F0D
:1020800022F0010241E80023002BF5D1016B012968
:1020900009D101680C3151E8002F22F0100241E80B
:1020A0000023002BF5D1202180F83E100021016390
:1020B000704708B590F83E10222901D0022008BDD3
:1020C00082684FF480539A4201D1016921B1816A3B
:1020D0009A421BD04AB10AE00268816A5268C2F390
:1020E00008020A80816A891C08E0026972B10268EC
:1020F000526802F07F020A70816A491C8162C18DB8
:10210000491E0904090CC18503D019E00268526810
:10211000F1E70168CA6822F02002CA600168CA6853
:1021200022F48072CA6001684A6922F001024A61A1
:10213000202180F83E10016B012903D0FFF728FA17
:10214000002008BD0021016301680C3151E8002F17
:1021500022F0100241E80023002BF5D101680A6843
:10216000D20602D50A6849680091818DFFF76BF8A5
:10217000E6E7000070B5044600680169E26821F4F2
:102180004051114301612169A068E2690843616916
:10219000114308432168CA6849F20C639A43024319
:1021A000CA6020684169A26921F44071114341610C
:1021B00031492068884202D03049884202D1FEF776
:1021C00019FD01E0FEF706FDE269002319216425EF
:1021D0003226B2F5004F626828D0A0FB0101930FB0
:1021E0009200FEF79DF80146B0FBF5F06FF0180283
:1021F000504301EB800006EB0010B0FBF5F000F05F
:10220000F002B1FBF5F002EB0012B1FBF5F06FF05C
:102210001803584301EB800006EB0010B0FBF5F00B
:1022200000F00F0021681044886070BDA0FB010120
:1022300092185B41FEF774F80146B0FBF5F002011D
:10224000B1FBF5F06FF01803584301EB800006EB8B
:10225000C000B0FBF5F000F0F80002EB4002B1FB6B
:10226000F5F0584301EB800006EBC000B0FBF5F041
:1022700000F00700D6E70000001001400014014004
:102280000148FEF7E3BF000084000020FEE70000E5
:1022900010B5134CA8212046FEF72AF9032020612F
:1022A000606110A0A06104F1A800E0614FF48060BB
:1022B00020620020A0626062E0620AA1216604F54B
:1022C000956161661021A1662067E0666067084934
:1022D000C0F10F028A5C2254401C1028F8D310BDB4
:1022E000E04700205465726D696E616C000000006B
:1022F0001E2E000830B50346401C0C46802A04D927
:102300007F2204E000F8015B491C521E02D30D78C5
:10231000002DF7D1091B197030BD000038B5234CD2
:1023200001226946207EFFF7D1F900281CD09DF8D4
:102330000000052825D008DC012816D0022817D077
:10234000032818D0042808D118E006281CD0072834
:102350001DD07F2808D080281CD0802804D3207E60
:1023600001226946FFF7B2F938BDFFF7D3FC38BD4B
:10237000FFF728FD38BDFFF75BFB38BDFFF7B8FC62
:1023800038BDFFF72DFA38BDFFF716FC38BDFFF753
:1023900005FC38BD207E01226946FFF797F9002829
:1023A000F7D09DF80000FFF7B5FB38BD985000202E
:1023B0002DE9F0474A4D0746144628780E464FF05F
:1023C0000109012808D0002875D0022804D100F0A6
:1023D0008DF8287801286ED1202C04D2E96909FAF9
:1023E00004F0014267D1E2B2182C0ED3F01B7F2813
:1023F00007D9C1097B1E40F08000197007F8020D53
:1024000001E007F8010D7F2C02D2791E0A7039E035
:10241000E0B240F08000B4F5804F04D2E2097B1EA8
:10242000B91E1A701DE0802343EAD411CAB2B4F574
:10243000001F06D2A30B7C1E2370BB1EF91E1A7050
:102440000FE0802141EA943101F0FF0CB4F1805F8C
:1024500009D2630D7C1E2370FB1E07F802CC1A7094
:10246000391F08700EE04FEA147843EA5453BC1E3B
:1024700007F8018C23703B1F394607F803CC1A700C
:1024800001F8050D17484468E868201A05E000BF08
:1024900040F0800206F8012BC0097F28F8D806F822
:1024A000010B721A6878FFF74FF908B1EC6002E08F
:1024B0002878401C2870287E00EB40010A4800EB79
:1024C000C100C16E006F814208D0A878002805D1F4
:1024D00085F80290FFF722FF0020A870BDE8F08782
:1024E00098500020001000E0E04700203EB5012099
:1024F000164C8DF800006A46501C616905E000BF6B
:1025000041F0800300F8013BC9097F29F8D800F8A1
:10251000011B0F494D68E168691A04E041F080032E
:1025200000F8013BC9097F29F8D800F8011B821A7D
:1025300060786946FFF708F920B1E5602178491E07
:1025400021703EBD6169491C61613EBD985000200B
:10255000001000E00907090E002804DB00F1E0206C
:1025600080F80014704700F00F0000F1E02080F8C0
:10257000141D704770B500F07BFB4FF47A73014671
:10258000A1FB03050022144602FB035201FB0421B8
:1025900070BD000010B504A0FFF72EFBBDE8104091
:1025A0000EA0FFF729BB00004E3D467265655254F0
:1025B0004F532044656D6F204170706C6963617486
:1025C000696F6E2C443D436F727465782D4D342CC9
:1025D0004F3D4672656552544F53000049233135D3
:1025E0003D5379735469636B00000000F8B5002413
:1025F0000A4D0B4E0EE000BF04EB840705EB87008D
:102600000169001D009190E80E0055F82700FFF7C2
:1026100047FC641C30688442EED3F8BDA45100200E
:10262000800000201CB5FEF75DF9FFF751FCFEF7B6
:10263000B3FFFEF7C7FF0D481424CDE900404FF467
:10264000806500232A460AA10B4800F0E5FA0748F6
:102650000023001DCDE900402A4608A1094800F0EA
:10266000DBFAFFF7A9F800F03FFAFEE700000020D0
:102670007461736B31000000092A00087461736B88
:10268000320000000B2A0008F8B5054600F0EAF910
:10269000354CA068401CA0602068344F10B16069C0
:1026A00038B32CE02560A068012828D15FF000062F
:1026B00006EB860007EB800000F0BAF9761C1F2EAF
:1026C000F6D32B4800F0B4F92948143000F0B0F9E3
:1026D0002748283000F0ACF925483C3000F0A8F934
:1026E0002348503000F0A4F9214860631430A063FF
:1026F00005E02068E96AC06A884200D82560606AFF
:10270000401C606265B12846FFF7ECF82B6B286827
:1027100005F13401C01A00902846EA6AFFF788FBE9
:102720002846FFF71FF9E96A012022698840104313
:10273000206101EB810007EB8000291D00F086F984
:1027400000F09EF9606900280CD02068E96AC06A30
:10275000884207D207494FF080500860BFF34F8F7F
:10276000BFF36F8FF8BD000018000020100100209B
:102770007C03002004ED00E070B5114E114C17E011
:1027800000F0DCF93068B8B100F0D4FA00F06AF972
:10279000F068C568281D00F039F9A068401EA060E7
:1027A0006068401E606000F06BF9284600F00CF88D
:1027B00060680028E4D170BD00F0BCFAF8E70000C2
:1027C000B80300201800002010B50446006B00F08C
:1027D00061F92046BDE8104000F05CB910484FF4A4
:1027E0008841420706D0C01D0D4920F00700411A5C
:1027F000C1F588410B4A00230144C2E900030839AE
:10280000103A21F0070111604B600B600B1AC0E910
:10281000001393604FF000405360D0607047000099
:10282000E003002068000020074C4FF08056074D61
:10283000FFF7A2FF20680128FAD92E60BFF34F8F5F
:10284000BFF36F8FF4E700001001002004ED00E0FB
:102850002DE9F0479A46DDE9096481466FF00303EC
:10286000206B03EB82021044089D20F00707002034
:1028700023180A5C83F834200A5C12B1401C10282B
:10288000F6D34FF0000884F843801F2D00D31E2597
:10289000201DE56200F0D7F804F1180000F0D3F82D
:1028A0002461C5F11F006462A061C4F8448084F80B
:1028B000488052464946384600F090F82060002E85
:1028C00000D03460BDE8F08730B5114900E0114612
:1028D0000A688242FBD34B685C18844203D140688B
:1028E00018444860084643681C18944209D1084CB3
:1028F000103C2468A24209D052681A4442600A6817
:1029000012680260814200D0086030BD0460F9E7BF
:10291000680000200648416B096829B1416BC9680D
:10292000C9684968816270474FF0FF31FAE70000DB
:1029300018000020BF2080F31188BFF34F8FBFF332
:102940006F8FFEE72DE9F0410546002700F0F6F80D
:10295000214E306808B9FFF741FFF068054236D1D3
:10296000ADB30835680704D005F00700C0F10800D2
:10297000054465B37068854229D817481030014670
:102980000C6801E020460C466168A94202D2216829
:102990000029F7D131688C4219D00768216801609D
:1029A00060680837411B102904D9601941606560CF
:1029B000FFF78AFF61687068401A7060B2689042E1
:1029C00000D2B060F06801430020C4E9000100F0CB
:1029D000B1F93846BDE8F0815800002010B5031F5A
:1029E0004FF080741C601B1F21F001011960191F3A
:1029F000044B0B6014390A60091F6FF0020244385F
:102A00000A6010BD35290008FEE7FEE7D0E9013273
:102A100001699A60D0E901235A604A68824201D173
:102A200082684A60002202610868401E08607047A0
:102A300000F108014FF0FF32C0E90112C1600161ED
:102A400000210160704700210161704742684A60BF
:102A500093688B6093685960916008610168491CB4
:102A600001607047BF2080F31188BFF34F8FBFF321
:102A70006F8F02480168491C0160704754000020B4
:102A800003490868401E086001D180F3118870472F
:102A90005400002070B5002818D00D4DA0F1080496
:102AA0006068E968084211D02268002A0ED1884384
:102AB000606000F043F86068696808446860204618
:102AC000FFF702FFBDE8704000F034B970BD0000B0
:102AD000580000204FF0E0200249416107210161C8
:102AE000704700003F9002001CB510480024CDE95B
:102AF0000040234680220EA10F4800F08DF80128E7
:102B000012D1BF2080F31188BFF34F8FBFF36F8FB7
:102B100006484FF0FF312C38816201214161C460C9
:102B2000BDE81C4000F03CB81CBD00004400002083
:102B300049444C4500000000292800080248016B68
:102B4000491C016370470000180000201248016B07
:102B500011B10121C16170470021C16101690F4AB2
:102B6000B1FA81F1C1F11F0101EB810102EB810199
:102B700001F108034A6852684A609A4201D15268DA
:102B80004A60D16801600168C26A914201D1FEF7D2
:102B900097BE0068FEF7C6BE180000201001002096
:102BA0000C4810B5016841F47F010160016841F0F3
:102BB0007F410160FFF78EFF074900200860FDF7A5
:102BC00053FB0648016841F040410160FDF73CFBC2
:102BD000002010BD20ED00E05400002034EF00E0A4
:102BE00010B5FEF7DFFEBF2080F31188BFF34F8FD3
:102BF000BFF36F8F00F042F830B106494FF08050BC
:102C00000860FEF703FF01E0FEF7EEFE002080F310
:102C1000118810BD04ED00E02DE9FF5F8346DDE97A
:102C20000E87994616468A469000FFF78BFE0500F0
:102C30001AD04C20FFF786FE040012D02563002135
:102C4000CDE90241CDE900874B4632465146584610
:102C5000FFF7FEFD2046FFF717FD012004B0BDE899
:102C6000F09F2846FFF716FF4FF0FF30F6E7000011
:102C70000148C06870470000180000202DE9F041AD
:102C80002A4C0027206B40B1A069401CA061E0697C
:102C900000B101273846BDE8F081E668761CE660A1
:102CA00008D1606BA16B6163A063206A401C206245
:102CB000FFF730FEA06ADFF87880864209D3606BA8
:102CC000006880B1606BC068C568686886420DD2D4
:102CD000A0622068C06A00EB800158F8210001283A
:102CE000D5D90127D3E74FF0FF30F1E7281DFFF7D3
:102CF0008DFEA86A18B105F11800FFF787FE284677
:102D0000FEF730FEE86A012122698140114321610A
:102D100000EB800108EB8100291DFFF797FEE86AB0
:102D20002168C96A8842CAD30127C8E71800002071
:102D3000100100202DE9F04700242646FFF792FEFF
:102D4000274D286B401E2863286BE8BBA968254FD8
:102D50000120C9B3A7F525798046386800B3F86823
:102D6000C46804F11800FFF751FE201DFFF74EFE66
:102D70002046FEF7F7FDE06A2A6908FA00F11143E0
:102D8000296100EB800109EB8100211DFFF75EFE48
:102D9000E06A2968C96A8842DFD3C5F81C80DCE78D
:102DA0000CB1FFF7B7FDAC6944B14746FFF766FFCA
:102DB00000B1EF61641EF9D10020A861E86918B183
:102DC00001263007084900E004E00860BFF34F8F98
:102DD000BFF36F8FFFF754FE3046BDE8F087000069
:102DE00018000020A403002004ED00E04FF0407024
:102DF000E1EE100A70470000000000000000010230
:102E00000304060708090000000001020304303132
:102E10003233343536373839414243444546000071
:102E200000000000545452205245474745530000CB
:102E3000000000000000000000303132333435362D
:102E400037383941424344454600000075250008A3
:102E5000ED25000853595354454D564945573A20DE
:102E6000436F756C64206E6F74207265636F72645B
:102E7000207461736B20696E666F726D6174696F27
:102E80006E2E204D6178696D756D206E756D626571
:102E900072206F66207461736B7320726561636862
:102EA00065642E00C42E000800000020840000008D
:102EB000C4010008482F00088400002024580000A6
:102EC000E001000800000000000000000100000018
:102ED00010000000000000000024F40000000000CA
:102EE00000000000000000000000000000000000E2
:102EF00000000000000000000000000000000000D2
:102F000000000000000000000000000000000000C1
:102F10000000000000000000AAAAAAAA0000000009
:102F200000000000000000000000000000000000A1
:102F30000000000000000000000000000000000091
:082F4000000000000000000089
:040000050800018965
:00000001FF
